:020000041000EA
:1000000000B50C4B00219960042159610A4919601F
:100010000A490B480160002159600121996001BC27
:10002000002800D0004707480749086003C880F34C
:10003000088808470000001800031F00180200038A
:10004000F40000180001001008ED00E000000000BE
:1000500000000000000000000000000000000000A0
:100060000000000000000000000000000000000090
:100070000000000000000000000000000000000080
:100080000000000000000000000000000000000070
:100090000000000000000000000000000000000060
:1000A0000000000000000000000000000000000050
:1000B0000000000000000000000000000000000040
:1000C0000000000000000000000000000000000030
:1000D0000000000000000000000000000000000020
:1000E0000000000000000000000000000000000010
:1000F0000000000000000000000000002CEC210DBA
:1001000000200420F7010010CB010010CD010010E9
:10011000C9010010C9010010C9010010C901001077
:10012000C9010010C9010010C9010010CF01001061
:10013000C9010010C9010010D1010010D301001045
:10014000C1010010C1010010C1010010C101001067
:10015000C1010010C1010010C1010010C101001057
:10016000C1010010C1010010C1010010C101001047
:10017000C1010010C1010010C1010010C101001037
:10018000C1010010C1010010C1010010C101001027
:10019000C1010010C1010010C1010010C101001017
:1001A000C1010010C1010010C1010010C101001007
:1001B000C1010010C1010010C1010010C1010010F7
:1001C000EFF30580103800BE00BE00BE00BE00BECA
:1001D00000BE00BEF2EB8871B8780010D87800102D
:1001E0003802001090A31AE71E481F49086006C88D
:1001F00081F3088810471D480068002801D019487D
:10020000F3E70DA40ECC002902D000F012F8F9E7B4
:100210001749184A002000E001C19142FCD116495B
:100220008847164988471649884700BEFDE701C937
:1002300001C29A42FBD37047D8780010C00000205A
:100240007C1000209488001000000420000004208E
:10025000948800100010042000100420000000000A
:10026000704700000000000008ED00E0000000D032
:100270007C10002068230220652500103104001046
:100280005D250010F8B5C04606480749091A8B10CD
:10029000C90FC91810B5491003D0044B002B00D06A
:1002A000984710BD7C1000207C100020000000004A
:1002B000054B10B5002B03D00449054800E000BFF2
:1002C000FFF7E2FF10BDC04600000000701E0020D6
:1002D00010740010F0B5254D85B02549280004F0B4
:1002E0002FFF0321032000F027FA0321022000F052
:1002F00023FA00220121022000F036FA0022012117
:10030000032000F031FA01236A4603AC1381013364
:1003100023700023002600935F212800023302AAE5
:1003200004F036FF134FBFF35B8F3868BFF35B8F6A
:1003300002F07AF8104902F05CF8104902F06DF80A
:1003400002F09AF801F0C8FF01F068FF030100090C
:100350006370A070032322005F212800009604F040
:1003600017FFC82006F092F9DDE7C04658100020BC
:10037000A0860100501A00200000C84200F07F450E
:1003800070B51A2000F05AFAD02380221B06D2043E
:100390009A620C2101221A20114B00F0F7F9002279
:1003A00000211A2000F0E0F90E4D0F4C286802F0F1
:1003B0003BF8011C0D4802F01CF80D4902F013F83F
:1003C00002F05AF801F088FF01F028FFBFF35B8FBD
:1003D0002060BFF35B8F642006F058F9E6E7C04663
:1003E000F5030010581E0020501A00200024744904
:1003F00000004842074B9A6A074B1A60090707D565
:1004000006491A680868121A054802601B680B60E2
:100410007047C046004005405C1E0020601E002062
:10042000581E002072B6FEE772B6FEE77047C0465F
:1004300030B583B002F08EF900250124802200231C
:100440000949520009480195009405F027FF8022D0
:1004500000230749520007480195009405F01EFF4C
:1004600005F02EFFFEE7C046107400108103001057
:1004700020740010D5020010D0231B061B68F0B5B5
:10048000A94ADE464E464546574699008846515889
:100490005A4253412F22E0B55B429343A34A83B0B3
:1004A0009B189B4600260191002939D0A04B0F27AD
:1004B0009A465A46F30808339B009D58012334009E
:1004C00099460836002D22D0390029402D090029EF
:1004D0001AD0534642469A582300E240203BDB178D
:1004E00013404A4613420DD10722080022409200D1
:1004F00090400200E3088F483C339B001A502000D4
:10050000019B9847002D02D00134B442DCD3202E49
:10051000CFD103B0F0BCBB46B246A946A046F0BD61
:100520000F23834A0192CC08220058460F0008325C
:10053000920012580837002A00D1CDE01800104070
:100540008446100913421AD04546019E7559AA46A1
:1005500020256D42A94689444D46ED17A9465546CA
:10056000CD402E004D4635400126354204D1664629
:10057000704D3C34A4006651002800D1ACE01C0052
:100580000440A446140A034219D0481C8146404640
:10059000019D4E46285805000800F5401F38C01739
:1005A00028400125284207D165462D01F0082E007C
:1005B0003C30604D80004651002C00D18CE018008A
:1005C00020408446100B234211D08C1CA146444687
:1005D000019D4E462C5925000C00F5401E3CE417A9
:1005E0002C4001252C4200D181E0002874D01C0051
:1005F0000440A446140C034210D0C81C8146404657
:10060000019D4E46285805000800F5401D38C017CA
:1006100028400125284273D0002C5DD018002040CE
:100620008146100D23420ED00C1DA4464546404C79
:1006300064596546EC4025000C001C3CE40F2C423C
:1006400067D0002848D01C000440A446140E034282
:1006500017D0481D81464546354840594D46E8402B
:10066000050008001B38C00F284208D165464846DF
:100670002D052E00C0082F4D3C3080004651002C27
:100680002AD0180020408446120F234229D0454624
:1006900027488C1D82464059E040050008001A3862
:1006A000C00F284206D1E0086446224D3C302406A3
:1006B000800044510731002A0ED050464446045968
:1006C0000800CC402038C00F204205D1C908194885
:1006D0003C31120789000A50202F00D119E7390058
:1006E00021E7002AF8D0124807318246E5E765463F
:1006F0002D02F4082E003C340E4DA400665174E720
:1007000065462D03F0082E003C300A4D800046510E
:1007100082E74D4664462D042E00E408054D3C3426
:10072000A40066518DE7C046E01900203041014029
:100730003C2100200040014010B54024074A8300BE
:100740009A181268C0005440C0222240044C1B1961
:100750001A60044BC018416010BDC04604C001407F
:1007600004D0014000400140064B8000C3181B68C4
:10077000C90092000A435A400C231340024A8018D1
:100780000360704704C0014004D00140F0B54F46FB
:100790004646D646C0B5D0273F0688469A46190039
:1007A0003B68224E9D00914672590400002A2DD0CC
:1007B000002935D0524672515A4253412F225B4292
:1007C00093431B4A40469B180722224092009040C8
:1007D000E1080200080089005B184946154C3C30CE
:1007E0008000025100290CD0802189015B180D2066
:1007F00001211A6000F01EF9E0BCBA46B146A846D5
:10080000F0BDC02189015B181A60F5E70029D3D03B
:10081000715100220D20084900F06CF93B68CBE7CC
:100820000D20054900F04CFA3B68C3E7E0190020B1
:100830003041014000400140790400100123D022E2
:100840008340120693629361084A83009A181168E4
:100850004022514080320A400549C0005B181A60AE
:10086000044BC018052343607047C04604C00140D4
:1008700004D00140004001408023DB051868000FD0
:100880007047C0460FB400B5084883B001F0B0FF10
:10089000049B002B07D005A91800019101F044FE2C
:1008A000034801F0A5FF012001F056FE2C74001052
:1008B0003C74001010B50148FFF7E4FF40740010CD
:1008C00070B58C461600EFF3108472B60F490B68B2
:1008D000002BFCD0BFF35F8F6346DB08C5180722EF
:1008E000C05C63461A40012393401A000240034251
:1008F00007D118432870BFF35F8F0A6084F3108814
:1009000070BD61463000FFF7BDFFC0462C0100D02E
:10091000F8B5CE4647468C4680B51C00EFF31088EC
:1009200072B61C490B68002BFCD0BFF35F8FA2424C
:1009300021D80723994602E00132944218D3494650
:10094000012611408E40D308C718C35C1E42F3D164
:10095000100033433B70BFF35F8F00220D4B1A60D2
:1009600088F3108800280EDBC0BCB946B046F8BD3D
:1009700001204042EFE7BFF35F8F00230B6088F355
:100980001088012040426346002BEDD00898FFF705
:1009900079FFC0462C0100D0044A1078431CDBB21A
:1009A000172B00D9102313707047C046980F0020F2
:1009B00000B5054B83B00100009318221F230348A4
:1009C000FFF7A6FF03B000BD50740010F01900201F
:1009D0000021044B044ABFF35F8F02C39342FAD154
:1009E0007047C046000100D0800100D0084B094A82
:1009F0001360094A1360094A1360094A1360094ADF
:100A00001360094A1360094A1360094A136070476A
:100A10008080808000E400E004E400E008E400E07E
:100A20000CE400E010E400E014E400E018E400E06E
:100A30001CE400E01F2318401E3B8340002905D022
:100A4000C021044A49005350136070478022014975
:100A50008B50FAE700E100E001228240034B1B6863
:100A600013405A1E9341D8B27047C04600E100E0DF
:100A700001238340014A13607047C04600E200E052
:100A8000054B10309B688000C358044A00209B1A15
:100A90002F229A424041704700ED00E09C0F002059
:100AA00070B50D00EFF3108672B60F4A1368002B75
:100AB000FCD0BFF35F8F0D4B10309B6884001B5937
:100AC0000B4A934203D09D4201D001F043F8074BFB
:100AD0009B681D51BFF35F8FBFF35F8F0022024BF6
:100AE0001A6086F3108870BD240100D000ED00E08C
:100AF000C1010010F0B5DE4657464E464546E0B50A
:100B0000824683B08B461700EFF3108872B6604AB6
:100B10001368002BFCD0BFF35F8F00255D4B5D5742
:100B20009946002D00DA9AE04A466B005A4C5E194D
:100B3000B6000193A31900939B791370574B9A68E1
:100B4000534610339B00D15899460B1B2F2B32D99B
:100B5000534B994200D098E0019B0236ED18514B5F
:100B6000AD006353504BA619043B9B1B4F4A1B051A
:100B70005B0D651913436B804D4B0121AB80FF2347
:100B8000AB715B46AB60009BEF710B4319004A46AB
:100B9000424B9B689950BFF35F8FBFF35F8F00227A
:100BA0003B4B1A6088F3108803B0F0BCBB46B246DA
:100BB000A946A046F0BD01200A008243D379B4467D
:100BC000BB422DD83B4BB51C190013001B1B5B41CE
:100BD0005943090D8C46334B6519A353324B009989
:100BE000043B5B1B1B05314D5B0D2B4304364B80D7
:100BF000A619131F9B1B1B055B0D1D4363468B71C1
:100C00005B468B602C4B8D80CF7113600143BEE738
:100C10005800C01880002018C679BE4225D90200AD
:100C20000623D356002BF3DA9A46131D9C4623481D
:100C30006346009E9571043EF61A36051B4B760DF1
:100C40001E43019B96805A1953469200A418A37123
:100C50005B46194AA0802260E771A36097E700F025
:100C600079FF00254B465D575EE766469A46131DA1
:100C70009C469088043640050015A6196044801BE8
:100C800000050A4E400D3043D2E700F063FF63E7F2
:100C9000240100D0602302209C0F002000ED00E022
:100CA000C101001000A1FFFFCC0F002000E0FFFFFA
:100CB00001BDFFFFAAAA00000148804701BD000056
:100CC000F0B54546DE4657464E46E0B50D0083B0CA
:100CD000EFF3108872B6604A1368002BFCD0BFF3A4
:100CE0005F8F5E4B5E499A68030010339F00D459B2
:100CF00099468C423ED0AC424FD05A4EA21B2F2A6E
:100D000038D8594B1A689C46130001228240134080
:100D10001F22024001209A4690406346802283466B
:100D20009850BFF35F8FEFF305830193002B36D00C
:100D3000994501D000F00EFF012322009A439068EC
:100D4000854208D176E04B005B189B00F318986849
:100D5000854236D01A00062151560029F3DA854221
:100D600054D05346002B27D0C02259463E4B520048
:100D700099501960394B9B68DC51BFF35F8FBFF30B
:100D80005F8F0022344B1A6088F3108803B0F0BCE8
:100D9000BB46B246A946A046F0BD0C00EAE72200D9
:100DA00001339A4390688542D5D10620105613002E
:100DB00000280ADA0C0031E0802359462A4AD15033
:100DC000D8E706201856002821DB420011188900B8
:100DD00075188946A9689960E979D971062169561B
:100DE0009971002924DBAD88F11A6D052D154D444C
:100DF000491909051D4D490D2943998013181C4AAD
:100E00009B001178F31899711070AAE713000199EB
:100E1000002914D1FF3191711649918014490A7843
:100E20009A71154A9B1B5B415A43120D0A7098E751
:100E30001049E2E70620105613000028C5DA0F4AD1
:100E40000F49D21A083A5002400D014399800D49CA
:100E500052080A43DA8084E7240100D000ED00E064
:100E6000C10100109C0F002000E100E000E0FFFF46
:100E70006023022001BDFFFFAAAA0000D60F0020B8
:100E800000F0FFFF00F8FFFF084A83089B009B1853
:100E90001A6810B5140003221040C000FC328240D2
:100EA0009443220081400A431A6010BD00E400E030
:100EB0000123034370B59C46EFF30581EFF31085E2
:100EC00072B6214A1368002BFCD0BFF35F8F1F4B13
:100ED00004001F4AE41A64416243120D1D4C89004C
:100EE000A66852B2765866451CD0062159569142E2
:100EF0001CD012215956914222D01E21595691429E
:100F000020D02A2159560324914210D0124B19782F
:100F10001A708171BFF35F8F00220B4B1A6085F34B
:100F2000108870BDA3680D4C5C50EFE70024610091
:100F3000091989005B18FF21997109499980E5E732
:100F40000124F4E70224F2E7240100D09C0F0020E2
:100F5000AAAA000000ED00E060230220C1010010F9
:100F600001BDFFFF00B5074B83B0010000930022D5
:100F700005230548FFF7CCFC002801DB1F23181AC6
:100F800003B000BD6C74001064230220024BC9182A
:100F9000890001607047C04640000034F8B5124C2B
:100FA000124DAC4212D20126002776422368002B54
:100FB0000DD0FFF7F1FC01002000FFF7E7FF6660AE
:100FC0002772BFF35F8F0C34AC42EFD3F8BDFFF74D
:100FD000E3FC01002000FFF7D9FF6660BFF35F8FDD
:100FE0000834AC42E2D3F1E76C1000207C10002002
:100FF00010B50400FFF7D0FC01002000FFF7C6FF8A
:1010000001235B426360BFF35F8F10BD10B5040026
:101010000120FFF7CDFC034BC01880002060BFF318
:101020005F8F10BD40000034034BC9188900016078
:10103000BFF35F8F7047C04640000034F0B5DE4616
:1010400057464E464546E0B585B0EFF3058303228B
:101050001A40B34B91005F58012393409B46029284
:101060005A468846AF4B1A60AF4B03935B46AF4876
:1010700043630823FE5E002E37DABB881BB2002BC9
:1010800000DBA4E0BB79002B00D0E5E00823F95E8B
:10109000002920DB4B007A695B18DB00D3189D68C0
:1010A000DC686B1C00D104E1A04801004144826A65
:1010B0000B69AE1A9B1A9E4215D30123026A02984D
:1010C00083401A420FD0994800F03EFB8C4202DC6C
:1010D000CCD18542CAD940BF05B0F0BCBB46B246B0
:1010E000A946A046F0BD0D61EDE77A69730091460F
:1010F0009B19DB0099444B469C68DD6800F024FB9B
:101100008D42BADC00D1F6E0002D00DADBE04A4681
:101110004B4652691B699246039A934200D1CCE038
:101120004A460821785E5288000451461043984789
:10113000009001910099019A0B00134300D1C2E085
:1011400013000A00002B00DBD9E020002900801AE0
:1011500099414B469860D96000229B5E002B00DAD3
:101160008BE75D007C69EA18D200A21800949468AD
:10117000D268A2468A4200DD7FE702D1844200D9CC
:101180007BE70824A4463B81BC44009C00972F00C9
:101190006546B4463E0006E05E00F218D200A21892
:1011A0009768D268BA468A4207DC00D1B4E0F318E7
:1011B000DB00E518E35E002BEEDA66464A46009F48
:1011C00013802E80BB881BB2002B00DA5AE73A69E5
:1011D000EFF3108172B61368002BFCD0BFF35F8F62
:1011E0000123BE885B42BB8036B23B69BFF35F8F91
:1011F00000221A6081F31088002E00DA42E73B00DB
:1012000008333A0099467D6973009B190824115FE1
:10121000DB004846EB18002913DB9C680093A446CA
:10122000DC6806E0A34240D00023F95E38000029C4
:1012300006DB4F007F18FF00EF19FB68A342F1DDCA
:10124000009B068000201E5E1980002EDCDA17004D
:10125000BB79002B00D119E70023BB710823F95E8D
:101260004B1C00D137E73D000835AC467C6903E0F4
:1012700084464B1C00D109E74B005B18DB00E018EB
:101280000A00E15E43881BB2002BF1DA01256D42B2
:10129000EE178560C66008257B5F9342E9D0634600
:1012A00019803B8903803A81E3E7BB686345BBD97A
:1012B000C6E7631C00D0F7E605E7534650461B69B6
:1012C0009847002823D14B461B883A693B81EFF3AE
:1012D000108372B611680029FCD0BFF35F8F4946B6
:1012E0007A880A803A697E80BFF35F8F002111609F
:1012F00083F31088C1E6844200D805E7BDE60B48B9
:1013000000F022FA009B019CC018614121E753467E
:101310000CCB009201930DE7824500D847E74CE7DC
:10132000901E00203C7005403D100010004005401C
:10133000074810B50268EFF3108172B61368002BEE
:10134000FCD0BFF35F8F04F091F80020002110BDA6
:101350005022002070B52D4C2569002D04D00A21A3
:101360002B48FFF713FE70BD2A4E0321294800F0D9
:10137000E1F9E660FFF710FB274B0322C018D023EA
:1013800022701B061B6801216370244B8000A36040
:101390000F2320610220638063694942A180198084
:1013A0000231198647311D83585218315A5275320D
:1013B0005C399952183201319952183201319952DF
:1013C000183201319952083518329D5202311832C3
:1013D000995218320131995218320131995218320A
:1013E0000131995218320131995218320131995212
:1013F0000B4B0C49DC6001303562FFF751FB0121DA
:101400000320FFF717FB084B1D60A8E7E40F00203F
:10141000502200200040054040000034FFFF100033
:10142000901E00203D1000103860054000487047B5
:10143000E40F0020F8B51F0008AB1B78040016006D
:10144000002B07D100F088F932003B00121A8B41C3
:10145000002B51DB2269EFF3108C72B61368002B5E
:10146000FCD0BFF35F8F0223E15E256900293ADBE0
:101470004B0060695B18DB00C218C35A6380BFF37E
:101480005F8F00232B608CF31088069B9660D760DB
:101490001361079B5361538801335B045B0C181C79
:1014A000002B1ED083B25080080418432569EFF347
:1014B000108672B62B68002BFCD0BFF35F8FA38819
:1014C0001380A1802369BFF35F8F00221A6086F327
:1014D0001088237801329A400849E3685B181A6043
:1014E000F8BD0120DEE7BFF35F8F00232B608CF394
:1014F000108801204042F3E70020F1E73C20000083
:1015000070B582B00092019301000269EFF310847C
:1015100072B61368002BFCD0BFF35F8F0223C85E46
:101520000D6900283FDB4A69430016001B18DB00E9
:10153000D218F35A4B80BFF35F8F00232B6084F3E4
:101540001088069B1361079B5361009B019C93606D
:10155000D460538801335B045B0C1D1C002B20D02E
:10156000ACB20304558023430D69EFF3108C72B6BF
:101570002C68002CFCD0BFF35F8F8C88148088808F
:101580000A69BFF35F8F002010608CF310880A781F
:1015900001309040CA68084952181060180002B023
:1015A00070BD0125DCE7BFF35F8F00232B6084F360
:1015B0001088013BF2E7C0463C20000010B543898B
:1015C0000A1493421ADD53009B184269DB00D318BA
:1015D0000469EFF3108C72B62268002AFCD0BFF3C6
:1015E0005F8F5A88090494B2090C8A4208D00369B3
:1015F000BFF35F8F00221A608CF31088002010BDAB
:10160000094A22435A80012302698371BFF35F8F25
:10161000002111608CF31088027804499340C2685D
:10162000012052181360EAE70080FFFF3C20000011
:1016300040787047F0B5CE46474680B504000D00AF
:1016400085B0EFF305868946002E10D0364900207C
:101650004B6AAB4206D38A6A5B1B591E8B41A2427E
:101660004041184305B0C0BCB946B046F0BD2F4F4D
:10167000FB683A7898461800039200F065F8039AE0
:10168000131D42469B009B5822001B1A9C462B00B0
:10169000121A8B419E4210DC0DD020BF224A00203E
:1016A000536A4B45DED3926A5B1B591E8B41A242A3
:1016B00040411843D6E79445EFD900F04DF8220099
:1016C0002B00121A8B41002B1BDB00230193184BBC
:1016D0002200009338002B00FFF712FF002810DDD6
:1016E000114B5A6A4A451CD39B6AA34217D3010087
:1016F0003800FFF763FF0C4A0020536A4B45B1D313
:10170000D1E7094A0020536A4B45ABD30020926AC7
:101710005B1BA24240415A1E93411843A2E74A452F
:10172000E5D120BFE3E7C04600400540E40F0020BC
:101730003113001010B5024A0248FFF7C1F810BD7E
:1017400088740010F41900200300416A0A00986AA6
:10175000596A8A42FAD17047034B596A0A00986A5B
:10176000596A9142FAD1704700400540F8B5DE460B
:101770004E4645465746E0B505008B4618000A9987
:10178000914600F013FB0A9B6C001E026419304B5B
:10179000A400E418636880469E4200D966602F1F4B
:1017A000FBB29A46012B2FD9C0238022294FAD00CE
:1017B0009B0179591201E3181A6000291BD14B468D
:1017C00022685B015340E022134080225201A2189C
:1017D00013605346012B2FD9802380229B01E318ED
:1017E00012011A60434666607B51F0BCBB46B246AC
:1017F000A946A046F8BD786900F0D8FA0130430048
:101800001B18033BFDD2DAE75B46012BCCD1C0238A
:1018100003229B01E3181A60023AA3681A42FCD023
:101820004A46236852015A40E02313408022520165
:10183000A218084F1360AD005846032321684140A9
:101840000B40136001228240A3681A42FCD0C3E718
:1018500000800040F8190020F0B5D6464F464646B5
:10186000440098462418324BA400E41863688A4662
:101870009146C0B5FF2B02D880235B006360061F32
:10188000F6B2012E2FD9C02380222A4F85009B015A
:1018900079591201E3181A6000291BD14B462268BE
:1018A0005B015340E022134080225201A2181360D2
:1018B000012E30D9802380229B01E31812011A6087
:1018C00080235B00636043467B51E0BCBA46B1466F
:1018D000A846F0BD786900F069FA013043001B1892
:1018E000033BFDD2DAE75346012BCCD1C0230322C0
:1018F0009B01E3181A60023AA3681A42FCD04A46D8
:10190000236852015A40E023134080225201A2185A
:10191000084F1360850050460323216841400B4067
:10192000136001228240A3681A42FCD0C2E7C0467D
:1019300000800040F8190020014B8000C05870471B
:10194000F8190020F0B5C646040000B5234816007B
:1019500098460D0000F02AFA0100300000F026FA47
:101960004346069A1B04120313439C462368060051
:10197000002B22DB1A4B1B48E218531E9A4180238E
:101980005242120B9B011203D218174B1A60174BCD
:101990001A60130001688B43FBD12122144B256090
:1019A000E318A6601A602268002AFCDA6246E26048
:1019B00008221A6080BCB846F0BD3F23226813405D
:1019C000AB42D7D1A3681B051B0D8342D2D1EE22B7
:1019D000E368D20213406345CCD1EBE7001BB700AC
:1019E0000040FDBF08C0004000E0004000F00040A3
:1019F0000430000010B580241C4BE4051C60002856
:101A00001AD001231A4C18431A4BDC611A4C44407B
:101A10001C62596298628021144BC90519601748ED
:101A200017490860E021C9041960002A07D1802203
:101A3000144B12061A6010BD0E4BD861EBE7530130
:101A40009B1A9B009A18802312015B049A4209D2C8
:101A500013000D490B60074B5A608022094BD205D9
:101A60001A60E8E7094B1A00F3E7C04600B00540EA
:101A7000D3C007B0008005402D3FF84FFCFF0100A8
:101A80000820014000A00540681E0020FFFFFF0065
:101A90008023024A9B000B43D362704700800540BD
:101AA000002310B50100988A1B8B984710BDC046D3
:101AB000162310B5010018885B88984710BDC046F2
:101AC000F8B54746CE4680B50F1E18D01423994668
:101AD000043304000025012698464B4618884346E7
:101AE00021681B88984701C4431E98410135064070
:101AF000AF42F2D13000C0BCB946B046F8BD0126B5
:101B0000F8E7C046002370B504000D00988A054927
:101B10001B8B984703000020002C01DB0130A04004
:101B20002900984755420000AA23064A1B0113606A
:101B30002133FF33D3600449044B19605368002BF1
:101B4000FCDA70470040024000B0FA00006002403A
:101B50007047C04610B50148FEF794FEAC74001003
:101B600070B5074D074EB54209D20024013E761BE1
:101B7000B608013608CD01349847B442FAD170BD99
:101B8000C873001004740010054B064A06491A6019
:101B9000064A074B1A6010000B689843FBD1704748
:101BA00000E00040BFCDFBFE08C00040FE7F3C00CF
:101BB00000F00040044BDB6C002B03D18022034B70
:101BC000D2021A607047C046000011504C201150DC
:101BD000044A054B1A60054A1368DB018033FBD1C8
:101BE0007047C046FFFFFF0100F0004008C0004002
:101BF0004022034B9A675A671A67DA667047C046F5
:101C000000F0014010B5FEF7E3FE10BD70B52849A5
:101C1000284D294E6D1AAC102200302C00D93022EC
:101C20003000920000F072FCBC2D3DD823002A3B0E
:101C3000224A052B1DD9302075196D07A446001BBB
:101C4000EB0F002D03DA611C8C46A1007250C01A04
:101C5000E3189B004108F318C900C9181A605A60BC
:101C600008339942FAD1012303421DD098436044BE
:101C70000400A300F250631C2F2C15D09B00F250DF
:101C8000A31C2E2C10D09B00F250E31C2D2C0BD04B
:101C90009B00F250231D2C2C06D09B00F250631D9C
:101CA0002B2C01D09B00F250054B9E6070BDC046AE
:101CB00000010010C001001000000020C101001050
:101CC00000ED00E0002310B5294C82B0A367FFF7B8
:101CD0002BFF0122274B1A60636C012BFCD10322DE
:101CE000254B1A60224A936B012BFCD101330093E0
:101CF0000121224A22480433FFF724FE0523012153
:101D00000093204A2048FFF71DFE002202210420F4
:101D10001E4BFFF7A1FD0022012105201C4BFFF700
:101D20009BFD0022002107201A4BFFF795FD0022A2
:101D300000210820174BFFF78FFD8023DB00009365
:101D4000002200210920134BFFF710FD0022104B49
:101D500000210620FFF780FD0420FFF7EDFD0E496E
:101D600000F024F801000020FFF792FE02B010BD41
:101D7000008000403CB0004030B00040002F685967
:101D800000800240008C864700C00240001BB70064
:101D900040597307006CDC0240420F0001480421E7
:101DA000014B184700100020C11A0010114A936F10
:101DB0009B0813D210665166002905D0FFE7FFE7A4
:101DC000FFE7516F106F704704B5002801D0002065
:101DD000C04305F0C1FA002104BDC046F0B5146E41
:101DE000556E576F166FFFF7E5FF14665566576718
:101DF0001667F0BD000000D094464A4A926F9208E0
:101E0000624601D228E0C046F0B5464E346E756E8B
:101E1000776F366F00F020F89446424A1466556694
:101E2000576716676246F0BD94463E4A926F920825
:101E3000624601D254E0C046F0B53A4E346E756E3B
:101E4000776F366F00F04CF89446364A1466556644
:101E5000576716676246F0BD002B24DB11D00029BE
:101E60003EDA00B5C943404200D1013100F038F8F4
:101E7000C943404200D10131DB43524200D101331A
:101E800000BD002AEBD1002801D1002905D0002097
:101E9000C90FC90701D1C043410800B505F044FA94
:101EA0000022002300BD00B500290ADBDB435242BB
:101EB00000D1013300F014F8C943404200D1013190
:101EC00000BDC943404200D10131DB43524200D141
:101ED000013300F005F8DB43524200D1013300BD6D
:101EE000002923D1002B18D1002A0CD0BC460D4F5D
:101EF00038667A6600210023FFE7FFE7FFE77A6F85
:101F0000386F67467047002801D00748010000B5C8
:101F100005F00AFA0022002300BD02000B00002099
:101F200000217047000000D0FFFFFFFF002B00D012
:101F3000BFE0130C28D1002AE7D080B4114F3966D6
:101F40007A66FFE7FFE730B4040C7B6F396F1B0440
:101F500023433B667A66FFE7FFE7FFE7C04684B2AC
:101F60007B6F3D6F1B0423433B667A66FFE7FFE709
:101F7000C04600232C042D0C7A6F386F001969417C
:101F8000B0BC7047000000D0F0B594460025140E98
:101F900001D112020835140F01D112010435940F3A
:101FA00001D192000235D40F01D152000135D40B7A
:101FB0000134254F7C66254C3C660E0C93B2FFE73E
:101FC000FFE7FFE73C6F6643360C7703BE4673437B
:101FD000DF0B5B04C01AB941130C7343DB18C91A39
:101FE000CE086643360CB64493B273431F0F1B01F1
:101FF000C01AB941130C73431F0B1B05C01AB9411A
:10200000860D8F023E436643360C092D24DB520AAF
:102010007243801A7703460A6643360C16235B1B0D
:10202000DE40DF40BF1964466643821B70460435BC
:1020300006330100D940A840C01900D30131A242A3
:1020400006D20023F0BD0000000000D0FFFFFFFF1C
:10205000121B0130F3D3F1E709277F1BFE406446D2
:10206000A2B27243801A00D20139220C7243130CBF
:102070001204821A99410B0070460435133701008F
:10208000F940A840801900D30131002B02D1A242AF
:102090000AD2F0BD013000D30131121BFAD2013B4C
:1020A000F8D1A24200D2F0BD013000D30131121BA1
:1020B000F7E7F0B51C0C00D080E00CB400251C0A3A
:1020C00004D11B02160E3343120208351C0B04D137
:1020D0001B01160F3343120104359C0B04D19B00E6
:1020E000960F334392000235DC0B02D192185B410C
:1020F00001351C00971864410134464F7C66464CFC
:102100003C660E0CFFE7FFE7FFE7C0463C6F664307
:10211000360C7703BE4697B27743C01B00D2013915
:10212000C01B00D201399FB27743C91BC91B170CD2
:1021300077437E04FF0B801BB941CE086643360C03
:102140000C2D33DBB644120B1F053A431B0B97B221
:102150007743C01B00D201399FB27743C91B170CCC
:1021600077433E043F0C801BB941860D8F023E43EE
:10217000664329277F1BFE400C3D7746AF40BF19C1
:1021800030BCA2B2ABB272437343801A9941220CA5
:102190007243130C1204801A994102000B0001379C
:1021A000001BA941F9D2781E0021F0BD0C277F1B2E
:1021B000FE4077467F0BAF40FF19E0E700245D1C2F
:1021C00007D0144F7D663966FFE7FFE7FFE7FFE7BB
:1021D0003C6F95B29EB265436643401BB141150CFE
:1021E0001E0C6543664336042F0C3E432D04401BF2
:1021F000B141994204D202000B0020000021F0BD41
:1022000001D19042F7D3801A994101349942F2D317
:10221000F6E70000000000D0FFFFFFFF18B4024BFC
:102220005B6A019308BD0000D012002010B5014880
:10223000FEF728FBB8740010132370B51D78012D2C
:1022400019D014DD1D48FFF733FC06001C48FFF7CA
:102250002FFC1C4C80223100200000F057F9022D89
:1022600006D01948FFF71CFC184B186070BD154CC0
:10227000174BA364F5E7174B124C23606360A36010
:10228000E36023616361A361E36123626362A3622C
:10229000E36223636363A363E36323646364A3640C
:1022A000E36423656365A365E36523666366A366EC
:1022B000E36623676367A367E367D9E753440000D6
:1022C00053460000D01200204C3300004C21002067
:1022D000812300102D220010274A4B005B0D9B1814
:1022E00070B55A1C28DB5A1C3FD004000D00332B5C
:1022F0001FDC3322D31A9C46203B21D401249C406E
:102300001E00654623000124AC40220012184B41F8
:10231000002E24DB0221B1400D00604602218140E5
:102320000C00160000216042A94106400B40340019
:102330001D002900200070BDCB0F0024DD07F8E749
:102340001E00202463460125E41AE54001242B00E9
:102350006546AC40220012184B41002EDADA2021EB
:102360000220491BC8400500D7E7044ACB0FDB0712
:102370001A4300241500DCE701FCFFFF0000F03FDA
:1023800007B5604601880A0A0230DF2AFAD1C9B2CD
:10239000820804D3028840880004104300E00068EB
:1023A000014A5050039007BDD012002051434343CF
:1023B000C9188C46110C83B24B4310B4040C614312
:1023C00092B280B2504362431C041B0C001910BC33
:1023D00059411304120CC018514161447047000068
:1023E0004840414048400E4B5B6818470C4B1B6807
:1023F00018470C4A936F9B0802D2094BDB681847B9
:10240000F0B5146E556E576F166FFFF7F6FF054A5D
:102410001466556657671667F0BD014B9B681847F1
:1024200050210020000000D0491A002808D1084699
:1024300070470000C10FC90700D54042002817D0DF
:10244000F44603B40B4B1B68984706BC81409E388A
:102450004042803107D20B0607D04900490AC00527
:102460001043084360470130F8E7490A8902F5E75D
:10247000704700004C210020014BDB6F1847000023
:102480005021002010B50148FEF7FCF9C875001076
:10249000132310B51C781148FFF70AFB012C0BD051
:1024A00004DD010080220E4800F030F80D48FFF7EF
:1024B000F7FA0D4B186010BD094C010054222000A2
:1024C00000F024F822002000084980320368002B25
:1024D00000D1016004309042F8D1E7E75346000094
:1024E000502100204C3300004C2100208524001096
:1024F00001480421014B184710100020C11A001098
:10250000014B1B681847000010100020014B5B684E
:10251000184700001010002010B5002800D110BD91
:1025200000F01CF9FBE7C04610B5094A0300146827
:1025300084B0002C08D0012200910648524203A921
:10254000A047012004B010BD00F052F90020F9E7C7
:10255000641E00201925001000BEFDE710B5FFF72E
:10256000FBFFC04670B5FFF7FBFA074D074EB542BB
:1025700009D20024013E761BB608013608CD01348D
:102580009847B442FAD170BD047400101074001062
:10259000030010B5080011001B68984710BDC04625
:1025A000F8B5437D07000D001600002B38D0002A37
:1025B0001ADD0B780A2B18D00020012E09D0012437
:1025C00021006B5C01340A2B1AD0B442F8D1864248
:1025D00003DD311A3B6828189847AD19013D2B7867
:1025E0000D3B5A4253413B75F8BD037D002BE3D1AF
:1025F00002210E483B689847012EEED00120DEE70D
:102600006B1E5B5C0D2BE0D0884203DA091A3B6835
:1026100028189847054802213B6898472000D4E7CE
:102620000368110028009847DEE7C04628760010AE
:10263000F0B54646D6464F46C0B582B090461C001F
:1026400006000D00FFF788F800232F4A12184B41AF
:10265000002B02DA01222D4B52422D4908008A46F6
:1026600004F092FE81466B1C03D1300004F018FE8A
:102670000500002C27D0274F274B1C68002C18D0B2
:102680004346002B21D1254B984602E02469002CBB
:102690000FD02368002BF9D043461B68002B01D0D4
:1026A0009C42F3D120002A003100B8472469002C55
:1026B000EFD14B46002B23D1280002B0E0BCBA4634
:1026C000B146A846F0BD164FD6E7144B984602E037
:1026D0002469002CEDD02368002BF9D043461B68F9
:1026E000002B01D0A342F3D12A0031002000B847CB
:1026F0006B460A222000DA71D91D093AB847E7E78C
:10270000504604F009FED7E740420F00FFFFFF7F6D
:1027100074100020A1250010481A0020541A00202F
:10272000912500100A4A1368002B05D10CE01A000D
:102730001B691032002B07D08342F8D1002902D147
:1027400018691060196170470029FCD01060FAE721
:10275000481A002010B500F07BFA10BDF0B5CE4647
:10276000474680B583B06B460600DD1D2870FEF736
:10277000F3FF0023194A12184B41002B02DA012201
:10278000174B524217490800894604F0FDFD164BCD
:1027900080461C68002C14D0144F02E02469002CE1
:1027A0000FD02368002BF9D03B68002B01D09C424E
:1027B000F4D1200001222900FFF7F2FE2469002C49
:1027C000EFD14346002B05D1300003B0C0BCB94661
:1027D000B046F0BD484604F09FFDF5E740420F00CB
:1027E000FFFFFF7F74100020481A0020541A0020B9
:1027F00070B5040004F054FD01230100050001221E
:102800002000FFF715FF084B1C68002C06D06368FA
:10281000002B05D098472469002CF8D1280070BD02
:102820002469002CF3D1F9E7481A00207047C0460C
:102830000022014B1A707047612302204B7900205F
:10284000FF2B0BD18B79002B08D1CB79012B05D134
:10285000082A03D9024B8A7809301A707047C0469B
:10286000612302200120704710B5012913D11249BC
:102870005379107909781B0203430020994200D054
:1028800010BD5378012B08D0022BF9D1642200210E
:102890000020FFF7AFF80120F2E7D37891781B0210
:1028A0001943480ADB0501D4012040427F238A05F1
:1028B000D20F1940FFF726F9612302200048704724
:1028C000F47600109446012310B501290AD15278FC
:1028D0000023012A06D162461179527912020A4375
:1028E000072A01D0180010BDA6336146024A01F044
:1028F00063FA0300F6E7C0464C760010012303702C
:10290000004870472C7600104B780A781B0213435E
:102910008A7810B512041A43CB781B06134396220B
:10292000D200934200D010BD00220120110040428D
:10293000FFF7E8F8024B1860024B19607047C04679
:10294000E8190020EC19002010B5024B1878FEF7AA
:102950008FF810BD62230220154B70B51A68002A4B
:1029600022D0EFF3108172B610680028FCD0BFF3BC
:102970005F8F00200F4A596010701B68BFF35F8F94
:10298000186081F31088002400250B4E3078FEF784
:1029900063F8002804D1002400252900200070BD20
:1029A0003078FEF765F8F8E7FA240025A400ECE794
:1029B000881E0020632302206223022070B50500D8
:1029C00000200E0001F010FB002834D0002001F0A0
:1029D00021FB00282FD0FEF7BFFE0023174A121854
:1029E0004B41002B16DB164C200004F0CDFC0028D8
:1029F00021D0002001F0F8FA00280FD10120002199
:102A0000404200F00FFD03256D42200004F084FCDD
:102A1000280070BD01220B4B5242E4E7002001F078
:102A2000F9FA0028EAD029003200002001F0FCFA6F
:102A3000051EEAD1E7E703256D42E9E740420F00B2
:102A400054220020FFFFFF7F10B5FEF785FE002314
:102A50000D4A12184B41002B02DA01220B4B524255
:102A60000B4804F091FC00280CD0012000214042CA
:102A700000F0D8FC002001F01BFB0028F5D1044831
:102A800004F04AFC10BDC04640420F00FFFFFF7F2C
:102A900054220020F8B5CE46474680B505000C000C
:102AA000FEF75AFE0023344A12184B41002B02DA7B
:102AB0000122324B524232490800884604F064FC3D
:102AC000002803D1C0BCB946B046F8BD002001F0D3
:102AD0008BFA002848D00026002C41DD294B99466E
:102AE00013E0A919002001F01FFB070001200021BD
:102AF000404200F097FC002001F0DAFAFEF72CFECD
:102B0000204BF61903C3B4422ADD002001F02CFB50
:102B1000A71B0200B84200DD3A00002AE1D10120E3
:102B20000021404200F07EFC002001F0C1FA0020AC
:102B300001F05AFA002813D0002001F015FB0028FC
:102B4000E1D1FEF709FE4B460F000CCB0021844675
:102B50000D4812184B419F4202D8D4D19445D2D986
:102B6000404604F0D9FBADE700200021054B03C32C
:102B7000404604F0D1FBA5E740420F00FFFFFF7F76
:102B800054220020C812002020A1070030B50021E7
:102B900085B0284804F0E8FB00281CD1264B1A68B1
:102BA000002A16D0EFF3108172B610680028FCD00E
:102BB000BFF35F8F01242148596002781B68D2B2AD
:102BC0000470BFF35F8F0020186081F31088002A23
:102BD00017D005B030BD01200021404200F022FC9A
:102BE000002001F017FA0500124804F095FB002DB3
:102BF000EFD0134B1B68002BEBD0124A106898479C
:102C0000E7E7FEF713FC0400FEF7A6FDFA22002317
:102C1000920012184B41002B02DA01220A4B524259
:102C20000121029100210191084920000091FEF745
:102C300001FCCEE754220020881E002063230220DE
:102C4000E8190020EC190020FFFFFF7F5929001030
:102C5000D02310B51B0684B01C68FEF7E7FBFEF717
:102C6000E7FCA04202D0002004B010BD284B002198
:102C700000201B7801F060FD26480368002B44D03B
:102C80000120FEF76FF9FF23234C244920701840E0
:102C9000FDF706FF20780121FDF7CCFE0520FDF7AA
:102CA000EFFE002824D1082200211D48FFF728FC50
:102CB000FEF7BCFB0400FEF74FFDFA220023920052
:102CC00012184B41002B02DA0122164B524201210D
:102CD000029100210191144920000091FEF7AAFB06
:102CE0000028C0DB11480121FFF71CFD0120BBE7D4
:102CF0000120FDF75DFE01000948FEF795F900226D
:102D000005200B49FDF7F6FEECE7FEF771F9B7E792
:102D1000D478001054220020622302208D2B001052
:102D2000881E0020FFFFFF7F59290010201000207F
:102D300049290010004870479077001000487047FC
:102D40003C77001010B5040016480378002B20D003
:102D5000002C06D1144B15484380063BFF3B0380F3
:102D600010BD052C1CD8124BA400E4580F480123B9
:102D7000811C013C04E001330A800231142B0CD089
:102D8000E25C002AF7D1C022DBB25B009200134361
:102D9000E5E7112100F016F8DAE7CA239B00DEE729
:102DA0000020DDE75C22022009040000201A002038
:102DB0002477001010B5024800F0F4F810BDC046AA
:102DC0004421002030B5012900D1BBE0744B01390A
:102DD0001A78121114003034092A00DDB5E00470AD
:102DE000012900D1DAE00F221C782240140030348F
:102DF000092A00D9ACE04470022900D1CEE05A780B
:102E00009446121114003034092A00DDA3E08470C6
:102E1000032900D1C2E064460F222240140030345E
:102E2000092A00D99AE0C470042900D1B6E09A7842
:102E30009446121114003034092A00DD91E0047127
:102E4000052900D1AAE064460F2222401400303444
:102E5000092A00D988E04471062900D19EE0302576
:102E6000AC46DC7822119444092A00DD7FE06246FA
:102E70008271072900D191E00F22224014003034E2
:102E8000092A00D977E0C471082900D186E03025ED
:102E9000AC461C7922119444092A00DD6EE062469A
:102EA0000272092900D179E00F2222401400303447
:102EB000092A67D844720A2900D16FE03025AC4650
:102EC0005C7922119444092A5FDC624682720B29E4
:102ED00064D00F22224014003034092A59D8C47219
:102EE0000C295BD03025AC469C7922119444092AE8
:102EF00002DD0735AC469444624602730D294DD07D
:102F00000F22224014003034092A01D9373214002C
:102F100044730E2942D0DA7913111C003034092B86
:102F200001DD37331C0084730F2937D00F23134082
:102F30001A003732092B01D830331A00C273102916
:102F40002CD010300023037030BD3732140046E718
:102F5000373214004FE73732140058E73732140085
:102F600061E7373214006AE73732140073E7073538
:102F7000AC4694447BE73732140084E70735AC460F
:102F800094448CE73732140094E70735AC469444F8
:102F90009BE737321400C4720C29A3D14018D1E743
:102FA0004421002010B588B004000D22002168469D
:102FB000FFF7A6FA0D22002104A8FFF7A1FA4B2380
:102FC0006A466846137004A90D2204F09DF9152184
:102FD000082220006944FFF799FA08B010BDC046E6
:102FE000F8B500F047F90C23194DFF22AB67052017
:102FF0001849FDF77FFD184C402200212000FFF703
:103000007FFA4027002301262121144A6670278376
:10301000A260136063545F31618445396354104A80
:1030200010496360E2602787A1620B606362E2621D
:1030300004F082F980239B052E64EB6490230A4AF6
:103040000120EA508022094B5202DA64F8BDC046E2
:1030500000001150F9040020581A0020840010507C
:10306000000110508000105010D0010000201150BD
:1030700010B501210520FDF7DDFC10BD10B50022C3
:103080000021024800F016F910BDC046781A002051
:10309000044B1970002904D080219023024A890230
:1030A000D15070475D230220002011500B785B0641
:1030B00000D070474B78052BFBD18A78014B1A6002
:1030C000F7E7C04600001150F8B5CE464746C8782D
:1030D00080B58007830F1800012B61D08B780A79A7
:1030E0009C464B797F211B0213435B055E0D6346B3
:1030F0001940DC094B001A191F0063462F4D52017D
:10310000AA18937001236340537000231683D37071
:10311000D076B146CA00012C31D0294E92198E01C9
:10312000B446AC446646B2601360002931D0254BEA
:10313000C900C91871604B463F339B09022836D03D
:103140009B01214839190268490169180E00CA60BB
:103150001E49D31803608B422BD83B195B01ED1835
:10316000EB7E1B499B064A40134380221206134301
:103170006A6813600120C0BCB946B046F8BD154E60
:1031800092198E01B446AC446646B26213600029BF
:1031900008D1002364012C1963600F4BE360E9E759
:1031A0000020E8E70A4BC900C9187162C3E7DB01D8
:1031B000C7E7FEF7CFFCF268CFE7C046581A0020F9
:1031C00084001050040010506C1E0020FF0F10509F
:1031D00000001050800010500001105010B504F095
:1031E000ABF810BD7F2010B508404000C909401859
:1031F0001100044A400180181A0000F05BF8012019
:1032000010BDC046581A00207F23180000B50840A2
:1032100083B00B4204D14B424B41084A01339366C1
:103220008022C9094000064B401840010021C01807
:10323000120104F0C1F803B000BDC04600201150D7
:10324000581A00207F22130010B50B400A4200D10B
:1032500010BDC9095B005B1804485B01C01800235E
:1032600000220349C37004F0A7F8F1E7581A0020C0
:10327000FFF7FFFF80220A4B520410B51A60094B7A
:1032800009491A6010000B689843FBD18022002185
:1032900052010648FFF734F90922054B5A6710BD61
:1032A00000E0004000F0004008C000400000105066
:1032B00000001150002310B5C3820133828283764F
:1032C0000161040004F040F8002804D0802190231C
:1032D000074A8902D150200004F066F8002802D085
:1032E0000123237710BD200004F056F8FAE7C0460A
:1032F000002011507047C0467047C04600207047FC
:10330000002070477047C0467047C0467047C046AF
:103310007047C046024B5878431E9841C0B2704770
:10332000F8140020024B18784007C00F7047C046C1
:10333000F8140020F0B5D6464F464646C0B52E4B91
:10334000814698461B788A46FF2B4ED100293ED0F5
:10335000002154222948FFF7D3F80022284C294B9A
:1033600020001A70FDF744FE274B1C60274C2000FC
:10337000143CFDF74BFE200001F0DAFD244B254DF7
:103380001C60254B002B04D02800FFF7B7FA234B15
:103390001860002400232A78214F204E0FE0336864
:1033A00062019B18002B12D05B68002B0FD098474E
:1033B0002A780134E4B2511C2300A14209DBA24265
:1033C000EDD89B1A5B01DB195B68002BEFD1002065
:1033D0000CE042464B46514648461370FFF700FE4C
:1033E0000028F4D04846FFF743FE0120E0BCBA466F
:1033F000B146A846F0BDC04654100020F814002085
:10340000F01400205E2302204C1500204C100020F8
:10341000501500205C230220FD280010101400200D
:103420004C780010F0B5DE4657464E464546E0B5AE
:10343000C64B91B002931B78FF2B00D13BE1C44BEC
:10344000C44E1F00C44B0DAC0193C44B00933568B0
:103450006A69EFF3108172B61368002BFCD0BFF3DA
:103460005F8FA9612800210001F098FB6A69AB69B0
:10347000BFF35F8F0021116083F31088002800D113
:1034800019E16378082BE2D89B00FB589F466368DC
:10349000002BDCD0A0689847D9E77F222179AE4D78
:1034A0000A405300EB189846C8098044404601235F
:1034B000303005799D430571057903339D430571CE
:1034C000002A00D1FEE04346A54A1B7D12789342B4
:1034D00000D3EDE0A34A5B011568ED18002D00D183
:1034E000E9E0A36862792078AD69A847AFE79E4B11
:1034F0001A78002A00D1DEE01A78013A1A701B7897
:10350000002BA4D10122944D01212B7804201343D8
:103510002B703423EA5C8A43EA54EA5C8243EA541F
:103520000133EA5C8A43EA54EA5C8243EA54237832
:1035300000209B4600F09AFC602223791A40602A02
:1035400000D1EEE0402A00D1F4E0DB06DB0E012BD7
:1035500000D111E1022B00D1C6E0002B00D0E0E049
:10356000202A00D11CE2002A00D0DAE06379092B7E
:1035700000D9D6E07D4A9B00D3589F46764D2B78E4
:10358000DB0700D463E7FFF7C3FE60E7019BDB784E
:10359000DB0700D45BE76068FFF7AEFE57E76E4DD0
:1035A0002B78DB0700D452E728780007C00FFFF71D
:1035B000ADFE4CE72378694999468B46684B6949CB
:1035C00098468A4639001A7847460023B0460025B7
:1035D0004E46894610E053461B686A019B18002B33
:1035E00000D175E0DB68300098473A780135EDB2DC
:1035F000511C2B008D4243DC9542ECD39B1A5B019E
:103600005B44EFE7237857499946554B8A469846DD
:103610003100BB464E461A780025002347468946AE
:103620000FE053461B686A019B18002B54D0DB68DF
:10363000300098473A780135EDB2511C2B008D428D
:1036400006DC9542EDD39B1A009A5B01D318EEE796
:10365000019D542200212800FEF752FF1022FF2175
:103660004348FEF74DFF28002022FF2114304E462C
:103670005F46FEF745FF00F0EFFBFFF745FEE6E68D
:10368000354D542200212800FEF73AFF1022FF2179
:10369000281DFEF735FF28002022FF211430464662
:1036A0004F46FEF72DFF00F0D7FB2379AB70CEE637
:1036B000501C984213DA11B0F0BCBB46B246A94682
:1036C000A046F0BDA3686279207800F0E3FBBEE677
:1036D00046464F46204DE6E74E465F46CBE71F4D38
:1036E0009B1A5B015D19FCE67023217A0B4218D10D
:1036F000C80982460F330B405B0098461848EB1808
:1037000053441B7D00789946834268D215485B017B
:10371000006881469944002A00D163E14B46002BA2
:103720006AD120780021FFF76FFD80212078FFF714
:103730006BFD8CE60F4800F099FB012158460EAA5C
:10374000FFF7C0F8002800D081E6EAE75410002017
:10375000A477001050150020F81400204C780010B9
:103760005C230220101400205E230220C877001082
:10377000FC140020C5280010237A22890F2BD0D8F2
:10378000FF231340CF4AEB181B791578AB423ED389
:10379000691C9942C5DB5D1BCB4B6D01ED18686957
:1037A00000F064FB012158466B690EAA9847002877
:1037B00000D04CE66022150023791D401A42B0D19A
:1037C00063790A3B012BACD800F050FB63790A2BDC
:1037D00000D199E158460EA900F0D8FA37E6431C0B
:1037E0004B4500DAF9E04B461B1A5B019946B64897
:1037F0008144002A00D1F5E04B46586900F036FBC1
:103800004B46012158465B690EAA98479AE7AF4A92
:103810005B011568ED18002DC1D182E7A3799946A7
:103820006B789945D6D06B78002B00D035E14B46AC
:103830006B70002B00D12DE148460138C0B2FFF774
:103840007DFA002800D17EE143780793022B00D057
:1038500079E10122C179B1468B11491113400A4027
:10386000302112015B0113432A78A8468A4313438F
:103870002B7009239A4682445646BA46C37882780A
:103880001B021343C31805938E4B04938E4B08936E
:103890008E4B09938E4B0A93059BB34200D855E19A
:1038A000737801220B2B03D13378F278F6187378F2
:1038B000042B00D044E1059B00279B1B9BB2069381
:1038C000049B0B921D78002303931BE0099A7B0154
:1038D0001568ED18002D00D132E1310058462B69F2
:1038E000069A98478446082803D9069A824200D34C
:1038F00013E1049B01371D78FFB26B1C03979F42B5
:1039000000DD1DE1BD42E1D8039B5D1B089B6D01FD
:103910005D19E2E76B780CAA023213705846012356
:103920000EA900F049FA92E5E088030AC0B20F2B15
:1039300000D9F6E667499A008A5897460EA800F023
:103940009BFA5846A179FFF799FB02222B78134383
:103950002B707CE5E388012B00D0E2E608222B786F
:10396000584693430EA92B7000F010FA6FE5022021
:1039700029780CAB9A1C8B068908DB0F01400B439E
:103980001380584602230EA900F016FA5FE5E3887B
:10399000012B00D0C5E608222B7813432B7019E7C2
:1039A000237A22890F2B00D9BBE6FF231340EB18A3
:1039B0001D79444B1B789D4228D2444B6D011B68F6
:1039C0005D19002D00D1ACE6686900F04FFA0121C5
:1039D00058466B690EAA9847B4E6002A00D0A0E6C4
:1039E0000023994662790220130003928343012B3E
:1039F00015D0002A00D094E62B00434453443033C2
:103A00001B790CAA9B07DB0F0232B9E75A1CAA42AA
:103A100000DA86E6ED1A2C4B6D01ED18D4E7E38849
:103A2000002B12D1029B1878039B012B23D0FFF7A8
:103A3000EBFB43460221EB18534430331A790A4317
:103A400001211A711A790A431A714B46002B00D1D1
:103A5000FDE4586900F00AFA4B4601215B690EAAA1
:103A600058469847002000F001FA3523EB5CDB074D
:103A700000D5ECE4AEE6FFF7E5FB43460221EB1888
:103A8000534430331A798A431A711A7903998A4355
:103A90001A71DAE7FFF738FC9CE600215846FFF779
:103AA000F7FA5846FFF79AFBAB7807490393054BA3
:103AB000049198461A7800230449AA4605911D00EE
:103AC0001BE0C0465C2302204C780010101400203C
:103AD0000C150020F0770010059B6A011B689B18ED
:103AE000002B4CD0DB685846984743461A7801357E
:103AF000EDB2511C2B008D422DDC9542ECD39B1A6C
:103B0000049A5B01D318EDE70CAB9A1C58460123CD
:103B10000EA9157000F050F999E40B9A012A4ED0C5
:103B2000002A3CD00023B07804E00133DBB20F71EF
:103B3000934234D2C118C9B241440D79FF2DF4D05B
:103B40004E464546574600236B70EAE54E465746BB
:103B5000FFF7D8FB3EE65546542200212800FEF729
:103B6000CFFC1022FF21281DFEF7CAFC28002022CE
:103B7000FF211430FEF7C4FC039BAB7057E655469B
:103B8000FAE7FEF79BFE021E00D1CAE5D3789178D2
:103B90001B020B4358460EA900F00EF9D2E565460C
:103BA0003B002A0031000A9800F06AFE049B039A49
:103BB0001B7876190133934200DB6DE6C0E7174BA3
:103BC00029699942AED1079AACE7FFF797FB021E2D
:103BD00000D1A6E5584613780EA900F0EDF8B1E53E
:103BE0002189FFF7AFF8021EF4D19AE5022B0FD01E
:103BF000FFF786FB021EC9D193E5FFF79BF8021E73
:103C000000D18EE5122358460EA900F0D5F899E5AB
:103C1000FFF794F8021EB9D183E5C0466542001053
:103C2000F0B54F464646D646C0B50C0016001F00FC
:103C300082B0002A3AD0702398461D4B0025994641
:103C40001C4B9A461AE04B461B78200001935346C2
:103C5000997800F0DBFD00281CD021000198FFF7C7
:103C600033FA002816D0A378DA09012A19D00A9A63
:103C700001351370B54219DA2378E4186378052BFF
:103C800008D1E3789B079B0FBB4203D14246A37840
:103C90001A42D8D0002002B0E0BCBA46B146A846CD
:103CA000F0BD0B9A01351370B542E5DB0120F2E758
:103CB00054100020F8140020702270B58B780C008E
:103CC0001A4201D0002070BD064B20001D78064B23
:103CD000997800F09BFD0028F4D021002800FFF720
:103CE000F3F9F0E754100020F81400207F20074B70
:103CF00010B51A680840CB0934334000C018044B93
:103D00001100C01800F03EFD10BDC0464C1500204B
:103D1000F81400207F20074B10B51A680840CB0923
:103D200034334000C018044B1100C01800F052FD9D
:103D300010BDC0464C150020F814002070B57F243B
:103D4000C80984460C400F486400041964443034A8
:103D50002079C00701D5002070BD0B4801250078EF
:103D600084462079284320716046FFF73BFA0028FB
:103D7000F2D10122237993432371237903329343B0
:103D80002371E8E7F81400205410002070B5094CA6
:103D90000600082220000D00FEF7B8FB002380215A
:103DA000E360A3602B783000994300220023FFF7E3
:103DB000C5FF70BDD8140020F0B5C646244C1700CE
:103DC00080460822200000B50D001E00FEF79EFB75
:103DD0000023A760E381EB79AA791B0213431A1C25
:103DE000B34200D9321C96B2A281002B0CD0002E17
:103DF00015D0002F2AD0402E1AD8237896B27F2BC8
:103E00001BD80021134A0EE080212B780022994311
:103E100040460023FFF792FF80BCB846F0BD7F23E9
:103E200000222178994333004046FFF787FFF3E7EC
:103E30004022237896B27F2BE3D9064C320039001A
:103E40002000FEF763FB80212200ECE70020E3E77F
:103E5000D81400209814002010B514220021024824
:103E6000FEF74EFB10BDC046D8140020014B186170
:103E70007047C046D814002010B5054C0100082238
:103E80002000FEF743FB0023A360E36010BDC046A3
:103E9000D814002070B5374C1D0023780600DA09CD
:103EA000C9098A4210D00020002D00D070BD210029
:103EB0003000FFF7FBF82369002B03D02200032119
:103EC000300098470120F1E77F2B06D8A068002832
:103ED000ECD02A002849FEF719FBE289A1685219A3
:103EE000E38892B24919E281A160934214D03F2D38
:103EF00012D9A389981A051C80B2402828D82078A6
:103F0000ADB27F2826D800219A4230D01A4A2B0021
:103F10003000FFF713FFC9E72369002B05D022000B
:103F2000022130009847002808D080212378002201
:103F3000994330000023FFF701FFB7E7002130006D
:103F4000FFF762F930008021FFF75EF90120ADE74D
:103F50004025D4E79A4207D0074C2A002000FEF7FC
:103F6000D5FA80212200D2E780210022CFE700226B
:103F7000CDE7C046D81400209814002070B5040086
:103F8000FFF7C8F9002800D170BDFFF7CBF9002872
:103F9000FAD1C8236343124A2500D418E1780029D6
:103FA000F2D010339E18300000F0E2FD3F28EBD92C
:103FB0000020E178FFF79AFE0028E5D0300000F0FD
:103FC000D7FDE1783F2807D9064BEA01D218002037
:103FD0004023FFF7B3FED7E70020FFF79BFED3E7B0
:103FE000801000201414002010B50400FFF792F98F
:103FF000002801D1002010BDFFF794F90028F9D165
:10400000C8226243024B01309B181B791840F2E72B
:1040100080100020C82310B543430248181800F050
:1040200089FD10BD90100020F8B5C82343431D4DF5
:104030001033EE18802304005B029A4200D31A4A20
:10404000300092B200F0F8FD0700FFF763F9002896
:1040500001D13800F8BDFFF765F90028F9D1C82370
:104060006343ED18EB78002BF3D0300000F080FDB7
:104070003F28EED90020E978FFF738FE0028E8D085
:10408000300000F075FDE9783F2807D9074BE201C1
:10409000D21800204023FFF751FEDAE70020FFF797
:1040A00039FED6E780100020FFFF00001414002026
:1040B000F8B50400FFF72EF9002801D10020F8BD63
:1040C000FFF730F90028F9D1C82325005D432B0004
:1040D000134E2433F718380000F02CFD0028EDD0E3
:1040E00075190020A978FFF701FE0028E6D00D4AD7
:1040F000E3019C1821004022380000F09DFDA978C2
:104100000300051E07D022000020FFF717FE00283D
:10411000D4D02800D3E70020FFF7FCFDCEE7C0464F
:10412000801000205414002070B5C82444430C4B68
:104130000500E41880235B029A4200D3094A20005C
:1041400092B200F041FE0600200000F0F3FC3F2890
:1041500001D8300070BD2800FFF7AAFFF9E7C0467C
:10416000A4100020FFFF0000C82310B543430248FD
:10417000181800F0FDFC10BDA4100020F0B50025BB
:10418000184C83B0C82200212000FEF7B9F9164B65
:1041900021001D70FF236371E1235B02A3602000F7
:1041A00008234022A37338310095073B103000F0FC
:1041B0008BFC2700012321002000260040227831BB
:1041C0000093B837243000F07FFCC0363800FCF78D
:1041D0000FFF3000FCF70CFFE56127622663656383
:1041E00003B0F0BD80100020941400200A4B196B1E
:1041F0001A6A00290CD0002A07D00022DA615A631B
:104200001A6300221A62012070475A631A63FAE7A0
:10421000002AF8D0D961F4E78010002070B505229B
:1042200000210D48FEF76CF90C4D2B78DA0707D505
:104230000B4C9B070CD50121200000F099FE70BDAE
:104240000548103000F074FE2B78054C9B07F2D423
:10425000200000F06DFEEEE7801000209414002096
:10426000A4100020F0B54B79070083B0022B02D1D7
:104270008B79022B03D00024200003B0F0BD214B2A
:104280001E009B78002BF6D18B78092433700D78B3
:104290004D196B78242B07D00CE02B78ED181C19E6
:1042A0006B78A4B2242B05D1A242F6D20020FFF7EE
:1042B00065FEE1E71A00052B15D0042AF6D16B79CB
:1042C0000A2BF3D1104B2E78019301330093380061
:1042D0000223A919023AFFF7A3FC0028CBD00E3421
:1042E000A419A4B2E2E729003800FFF7E5FC002892
:1042F000C1D0AB7873702B781C19ED186A78A4B212
:10430000DBE7C046801000208210002060238C462E
:104310001100127870B513400022202B08D1324CC6
:104320004B7926000D7924781B022B439C4201D047
:10433000100070BD4B78222B1CD008D8202B39D010
:10434000212BF5D16346012B43D00122F0E7232B2B
:10435000EED16346012B42D0032BF6D1234B002B29
:10436000F3D08B78C97800200902194300E000BF20
:104370000122DDE76346012B31D0032BE5D1012576
:10438000CB788A781B0213431C001D4033000121A7
:10439000243318006940347100F0EAFD144B002BFF
:1043A000D3D0012362081A402900002000E000BF9A
:1043B0000122BDE76346012B0BD0032BC5D10D4B6A
:1043C000002BC2D0310000200831FEF79DFA0122F7
:1043D000AEE7094A0723FFF7EFFC0122A8E7FFF742
:1043E000D5FC0122A4E7C046801000200000000098
:1043F000000000000929001088100020F8B5474689
:10440000CE4680B5344C1F00E37880460D008B42C9
:104410003BD0A37800208B4211D0C0BCB946B04637
:10442000F8BD2E4B002B04D02D4800F099FB00283E
:104430004FD00020FFF7A2FDA378AB420AD1294B51
:10444000002B02D0002000E000BF0020FFF730FE6C
:10445000002801D00120E0E7234C200000F06AFB97
:104460000028F7D1002FF5D0BB06F3D1243C4046FD
:10447000A178FFF73BFC0028ECD000230022404647
:10448000A178FFF75BFC0120C7E7184E1448310004
:10449000BAB200F099FC164B002BC2D06379FF2B07
:1044A000BFD0002FBDD0BC46B444E14603E0013686
:1044B0004E45B6D0637932789A42F8D1084800F078
:1044C0004FFB0028F3D1064B103B597900E000BFA9
:1044D000EDE700E000BFACE7801000200000000026
:1044E0009010002000000000A410002014140020F0
:1044F000000000009322F0B5134C85B0002120008D
:104500009200FDF7FDFF23002000802640270F4D7D
:104510004D337600FF3329300295009300220023AB
:10452000002103970196FF3000F0C4F94035201DAB
:10453000283400230122002103970295019600945C
:1045400000F0B8F905B0F0BD941600201416002054
:1045500010B5054C200000F0E1F920002538FF38A7
:1045600000F0DCF9012010BDBC17002070B5084C2C
:10457000002520003130FF30257000F0D9FC2000EC
:104580000C3000F0D5FC2A23FF33E554657170BD73
:1045900094160020F8B5CE46474680B54B79804644
:1045A0008946FF2B06D12A23374FFF337E79FB5CE8
:1045B0001E4304D00020C0BCB946B046F8BD8B787D
:1045C0000C783B700B790C19002B3CD0A51803E03C
:1045D000AC4238D22378E4186378052BF8D1AC428A
:1045E00031D221004046FFF767FB0028E2D0A378D4
:1045F000DB09012B2BD0254800F09AFC2A23A27856
:10460000FF33FA54637922791B0213439421204A21
:104610005B055B0D9B185A425341022049007A5CAE
:104620005B00824313437B5418494046083900F02D
:10463000DFF90028BED023780136E4184B461B79F9
:10464000F6B2B342C8D84B46E01A80B2B3E711487D
:1046500000F06EFC0F4AA3780C3A5371637921790C
:104660001B020B435B050A495B0D5B1859424B412A
:10467000022011795B0081430B4306490020083971
:10468000137100F07FF9D6E794160020C4170020BC
:1046900000FEFFFFA016002070B51D002A230400B5
:1046A0001F48FF33C35C8B4216D04079884201D04B
:1046B000002070BD1B4B002B04D029040020090CE6
:1046C00000E000BF184B200019001E0000F05AF94E
:1046D00000281DD00120ECE79A235B00C35A002B71
:1046E0000DD1124B002B04D000201149AAB200E0DA
:1046F00000BF20000F4900F07BF90120D9E7962385
:104700005B00C1583130AAB2FF3000F05DFBE8E732
:104710002A003100200000F003F90120C9E7C0465B
:1047200094160020000000009816002000000000F1
:1047300014160020BC17002000B5030083B0002928
:1047400010D00020012B07D80A78002A04D00C488A
:10475000C2540120012A01D003B000BD1800FEF7A9
:10476000E9FDF9E701236A46002001A99380FEF7DD
:10477000E1FD0028F0D00122014B1A70ECE7C046A1
:10478000EC14002070B5040023780800DB070E004D
:10479000DD0F002B16D123785B0701D5280070BDF3
:1047A0000121494202F0E8FD2378DB07DD0F002BF1
:1047B0000AD123785B0708D4042223780125134308
:1047C000237002E00025E9E70025300002F0A4FD97
:1047D000E4E7C04670B50D000121040049422800FD
:1047E00002F0CAFD23785B07DE0F002B04DB2800F4
:1047F00002F092FD300070BD2378DB0704D4042260
:10480000237893432370F2E70026F0E74379027997
:104810001B021343C2785B0592075B0D920F022ABD
:104820001AD0032A0BD00020012A07D102394A42AC
:104830005141104A891899424041C0B2704702392B
:104840004A1E91410C4A4942114080220020D20068
:10485000891899424041F1E7022904D00020402202
:104860009A424041EAE7054A981843425841C0B28B
:10487000E4E7C046FF03000040FCFFFF00FEFFFF2F
:104880008446881830B51C00814206D24A78052A31
:1048900004D00A7889188842F8D830BD7F228B78F6
:1048A0001A4052006244DB09D4540A7889188842BD
:1048B000ECD8F2E7F0B5C64600B582B0904608AA3B
:1048C00020CA040016886A460120978D0A002178C4
:1048D00002408143200011432170320000932900DF
:1048E0000123083000F0F0F8002D01D0002E07D190
:1048F00001200A9B6780636002B080BCB846F0BDAF
:1049000025001C352800FCF773FB42460023002AD3
:1049100001D02B0000256361A561E9E70120704704
:10492000F8B502240B7807001C4063425C41080084
:10493000124B64421C40124B08300D001600E41864
:1049400000F0F8F8002807D1002E05D0344203D13A
:1049500001242B781C4201D00020F8BD3800697872
:10496000FFF7C4F90028F7D02B781C42F4D10023BC
:10497000002238006978FFF7E1F9EEE740FEFFFF1B
:10498000FF01000008239C468C4470B5050060467A
:104990000C00664600F0CEF8002803D001222378F0
:1049A0001A4201D0002070BD28006178FFF79EF9FF
:1049B0000028F7D062883000616800F03DF90122DC
:1049C0002378134000280CD0002BEBD10300626841
:1049D000617804002800FFF7B1F90028E2D0200038
:1049E000E1E7002BDED128006178FFF793F9D9E7E2
:1049F000F0B5C64600B58A8906000C000B78002A7F
:104A000006D101321A4240D0002080BCB846F0BD29
:104A10009B0734D42B4B4025984608239C46A4443E
:104A20006046674600F0A4F88542EDD8012223785D
:104A30001A42E9D130006178FFF758F90028E3D035
:104A4000380000F095F8012223781340854232D8CF
:104A5000002BD9D1414662880140131C8A4200D9FB
:104A60000B1C9BB200226178002B00D062683000E2
:104A70001C00FFF763F90028C6D02000C5E7FE231D
:104A800080251B029846AD00C7E74978FFF72EF94D
:104A90000028B9D0012223781A42B5D163880022B8
:104AA0006178002B00D062683000FFF747F90028DA
:104AB000AAD06088A9E7002BA6D130006178FFF763
:104AC00029F9A1E7C0FF0000F0B5C64600B5984639
:104AD0006B461E7E802304000F0015001B029A42C5
:104AE00026D8C068002803D00121494202F044FCC6
:104AF0002069002803D00121494202F03DFC4246D2
:104B00005204F303520C1343E3800023E0686381F3
:104B10002760A5802381002801D002F0FDFB2069D9
:104B2000002801D002F0F8FB012080BCB846F0BD9F
:104B30000020FAE7038941899C4682889BB288B2AB
:104B40008C4507D31B1A9BB2101C9A4200D9181C23
:104B500080B270475100091A5B189BB2F4E7C04657
:104B600003894089181A43425841C0B27047C04671
:104B7000038941899C4682889BB288B28C4507D3C1
:104B80001B1A9BB200209A4201D9D21A90B27047E8
:104B90005100091A5B189BB2F4E7C04670B50400D7
:104BA00000690D00002803D00121494202F0E4FB16
:104BB000238962899C4698B291B2A388944532D3E6
:104BC000421A92B2002A27D0934208D298422FD399
:104BD000C01A81B261818B4203D8C91A89B28B4253
:104BE000FBD9E28823685204520C5143280059181B
:104BF000FDF78CFC618901254A1C92B2A388914281
:104C00000DD900225B00D21A20696281002801D0F0
:104C100002F082FB280070BD0025628992B25B0021
:104C20009A42F1DBEFE75A00521A821892B2C9E7B2
:104C3000C01881B26181CEE7F0B54646D6464F46F0
:104C4000C0B5060000698A46904682B0002803D0AD
:104C50000121494202F090FB31897289B5888BB2FB
:104C600094B2914255D31F1BBFB2002F4BD0BD420F
:104C700005D2AB4252D25B199CB22F0074814346DD
:104C8000B8453ED89FB2A54203D8641BA4B2A54242
:104C9000FBD9F28831685204500C020062432B1B8E
:104CA0009BB28918019002009F4225D943439BB2D1
:104CB0001A0050469946FDF729FC5046019A7D1B83
:104CC0006419544331684844A2B2FDF71FFC71894E
:104CD000B588CB199BB26A00994216D99B1A3069E4
:104CE0007381002801D002F017FB380002B0E0BC4D
:104CF000BA46B146A846F0BD50467A43FDF706FCD9
:104D0000E5E73B1CBEE773899BB26A009342E6DB92
:104D1000E4E76F003F1BDF19BFB2A6E75B1B9CB245
:104D2000ABE7C046F8B50400C0680F00002803D008
:104D30000121494202F020FB258920896189A2884E
:104D4000ADB283B28EB2884228D39B1B9BB29A42EB
:104D500009D8E679F60906D1E068002801D002F00A
:104D6000DBFA3000F8BD2B0095421CD39B1A9BB296
:104D70009342FBD2E28820685204520C534339001C
:104D8000C018FDF7C3FB6B1C9BB2A2889D4216D9CD
:104D9000002352009B1A01262381DDE75100891B65
:104DA0005B189BB2D3E7E28820685204520C53434D
:104DB0003900C018FDF7AAFB0135A288ABB252003A
:104DC0009342E8DBE6E7C046F0B54E464546DE4690
:104DD0005746E0B589460500160083B0002A6BD01F
:104DE000C068002803D00121494202F0C5FA2F898A
:104DF000EA79BBB298466B89AF889BB2D2093DD1A4
:104E0000984562D27A00D31A43449BB2BB4261D226
:104E1000FB1A1A1C9BB2B34200D9321C96B2F31B88
:104E200001934346F3189BB29B46EA884446B84533
:104E300003D3E41BA4B2BC42FBD252043B1B570C6D
:104E40003A00624328689BB28018B34256D33A00B6
:104E500049467243FDF75AFBAB885B00D84501D841
:104E60009B4502DB5A46D31A9B465B4637002B8193
:104E7000E868002821D002F04FFA1EE0BE422BD293
:104E800098454CD34246D21A92B27900F01B92193F
:104E900001908A42C5DBDA1992B29346921B92B214
:104EA0009046934240D94346591A8BB29846F3181C
:104EB0009BB29B46EA88B9E70027380003B0F0BCF4
:104EC000BB46B246A946A046F0BD4246D31A9BB2A5
:104ED000BB429DD30027CBE7002FC9D0CC46EA8840
:104EE000F61B5104490C714398468C44D919002390
:104EF00089B2E1468B463E00019397E77B439BB224
:104F00001A0049469A46FDF701FB4946019B28686D
:104F1000E2187A43514492B2FDF7F8FA9CE779001F
:104F2000CA1A424492B2B1E79142BCDDC2E7C04620
:104F300010B50400C068002803D00121494202F0E6
:104F40001BFA2069002803D00121494202F014FA1B
:104F50000023E06863812381002801D002F0DCF99E
:104F60002069002801D002F0D7F9012010BDC04609
:104F700070B50400C0680D00002803D0012149422B
:104F800002F0FAF92069002803D00121494202F019
:104F9000F3F97F21E279EB011140E0681943E171F7
:104FA000002801D002F0B8F92069002801D002F0F1
:104FB000B3F9012070BDC046F0B54E464546DE4609
:104FC00057468446E0B585B098460EAB91461A78B0
:104FD0006346080019680023CB6601334860CB663E
:104FE00043460392002B4EDD01275E1E634680245C
:104FF00057401A79A24680254C4692020020102381
:105000009146AD000194841B62426241019C3A408A
:10501000245C520222434C462243019C0A614A6BA3
:105020001342FCD052468A5801949146002A10D16E
:10503000B04223D00022013091468045E3D163463F
:10504000039A1A7105B0F0BCBB46B246A946A04609
:10505000F0BD4A6D012293464A6B2A42FCD00A6E8B
:105060005A460194002AE5D04C46002C03D009236F
:105070002340082BE3D001204042E0E7039A002AB6
:10508000D8D19346E8E70020D9E7C046F0B5D64628
:105090004F4646468246C0B505200C00FCF74CFC46
:1050A0000500600821004019FCF780FE47003F180A
:1050B000060005213800FCF779FEA0461C4B321A89
:1050C000040068009146401998452BD81949FCF70F
:1050D0006DFE0130534600221B68DA6619680432FF
:1050E000514002320A408021490159180A604A465B
:1050F000DA6101221C624F2F00D92209A0215A50E7
:10510000DA6F310050400C4A00049A18000C10600D
:1051100001222800DA66FCF749FEE0BCBA46B14637
:10512000A846F0BD0549FCF741FE0130D2E7C04674
:105130003F420F00809698007C10000040787D016F
:105140000F4A70B5821A531E9A410E4BD200083294
:105150001A600D4B0D4C1A60150023689D432B1EE1
:10516000FAD166240268FF340571D5661460633C89
:105170008833FF3CD5639563D450FFF787FF70BD3C
:105180006010002000E0004000F0004008C0004037
:1051900010B582B06C46247C0094FFF70DFF02B07E
:1051A00010BDC0460000000000000000000000002C
:1051B0000B4A13681868203080F30988022080F3B6
:1051C0001488BFF36F8F3FBCAE4608BC04BC62B608
:1051D0001847C046C046C046C046C046C046C04646
:1051E000A41E0020000000000000000000000000DD
:1051F000EFF30980164B1A6820381060F0C044465F
:105200004D4656465F46F0C00D221207146E556E8D
:10521000566F176F3038F0C008B572B601F078FAE3
:1052200062B60CBC116808681030F0C8A046A946E8
:10523000B246BB4680F309880D2212073038F0C809
:105240001466556656671767F0C81847C046C046CB
:10525000A41E002010B5FBF72DFBC046D02300B5DF
:105260001B061A6D83B0D20704D501219A6D1A6D01
:105270001142FBD1D023FF221B061A650023114ADD
:1052800001931168EFF3108C72B60B68002BFCD001
:10529000BFF35F8F00230C48126801680360BFF3FF
:1052A0005F8F13608CF31088084B01AA186800F018
:1052B000CFFA019B002B03D08022054B52051A60C8
:1052C00003B000BDA01E002074220220DC220220B8
:1052D00004ED00E07047C04610B58024031F64044D
:1052E0001C60043B19600349043B1960143B4038BF
:1052F0001A6010BD555200108022044B52051A60EE
:10530000BFF34F8FBFF36F8F7047C04604ED00E0CF
:1053100072B6044A136801331360BFF34F8FBFF3B3
:105320006F8F704770220220034A1368013B13609D
:10533000002B00D162B6704770220220EFF310807C
:1053400072B6704780F310887047C04610B5FFF7FB
:10535000F5FF040001F002F8002803D08022034B7F
:1053600052051A602000FFF7EDFF10BD04ED00E0CC
:10537000002310B5084A094C052023601360FCF790
:10538000DBFAFA218900FCF711FD054B01381860A2
:105390000723236010BDC04618E000E010E000E0E5
:1053A00014E000E0FF221F4B1204196810B50A43F5
:1053B0001A60FF22196812060A431A601A490E2061
:1053C00001F062FE19490F2001F05EFE18490B2022
:1053D00001F05AFEFFF7CCFF0022164B1A60D023D3
:1053E0001B06154A1C681470FF221A651A6DD20735
:1053F00004D501219A6D1A6D1142FBD10F34FF21A2
:105400002000FBF741FD20000C49FBF749FB01217F
:105410002000FBF70FFBFFF7CBFE01F079F9FBF75C
:1054200049FAC04620ED00E0F15100104D53001044
:10543000D552001070220220681000205D5200102A
:10544000D02310B51B061868074B1B78834200D089
:1054500010BDEFF30583002B02D05B00C018F7E707
:1054600001F09CFBF4E7C0466810002010B5C6466A
:1054700000B52C4A03688C469B1883B09A105C2BAD
:1054800000D9183A01239340274A1178D0221206F6
:105490001268914221D040BF244C026821688A42A0
:1054A00037D00A68002AFCD0BFF35F8F20490A6812
:1054B0001A430A602368BFF35F8F00221A600268F4
:1054C000D021002309064B65BFF35F8F13608CF377
:1054D000108803B010BCA04610BD40BF0268BFF3E7
:1054E0005F8F002111608CF31088EFF30582114863
:1054F000D2B20068002A11D0019101AA190000F06F
:10550000A7F9019B002BE4D080220B4B52051A60B7
:10551000DFE70748016819430160D1E7190000F08F
:105520004DF9D6E700FFFF2F68100020A01E0020D5
:1055300074220220DC22022004ED00E0F0B5C64611
:1055400000B51D00354B14001A78D0231B061B68CC
:1055500006000F0082B09A420ED00368BFF35F8F3F
:1055600000221A6081F3108820002900FCF762F8FD
:1055700002B080BCB846F0BDFCF7EEF822002B006C
:10558000121A8B41190001231000254A5B42801832
:1055900059413368984600291FDC1AD0BFF35F8F4A
:1055A00000234246136087F310881E4B5A6A9542C7
:1055B00005D89B6A0120A342DAD29542D8D1802235
:1055C000194B52051A60BFF34F8FBFF36F8F002046
:1055D000CEE7FA239B009842E0D3FA220023920000
:1055E000FCF70AFC0028D9D0BFF35F8F00234246A6
:1055F000136087F310880D4B0D4A1F6833689B18A2
:105600009A105C2B00D9183A012100909140002398
:105610000122380000F076F8C7E7C0466810002085
:1056200018FCFFFF0040054004ED00E0DC220220F2
:1056300000FFFF2F10B5FBF7AFF9054A054B8018A7
:105640008000186000F052F8034B186010BDC0468F
:1056500040000034A01E0020DC220220F0B5D64617
:105660004F464646C0B506000F00050000F062FE3A
:105670003368346919000C3539438C463160A542D2
:105680002BD000239A468023DB04994613E047463B
:10569000002F0DD080277F043A4202D052461A4391
:1056A000924680239B04194301F0E0F933689C463D
:1056B0006146A5420FD020000F0002686468130203
:1056C0001B0A1F40B8464F463A42E0D04345E1D05E
:1056D0006146A542EFD153469943316000F022FF65
:1056E000E0BCBA46B146A846F0BDC04610B51C2085
:1056F00001F0EEFC041E03D0002308C000F0B4F853
:10570000200010BDF0B5C6460D00060000B51F0014
:10571000904600F00FFE2B0034682340002F0DD17F
:10572000002B28D04346002B28D02300AB43336006
:1057300000F0F8FE200080BCB846F0BD9D42F1D0DC
:10574000069B002B1AD0434680215A1E9341C90460
:105750001B061943069A2943301D01F039F800F061
:10576000E1FE002824D001F051FA040083010DD598
:105770002402240ADEE7069B002B02D100F0D2FEB1
:10578000D8E741464B1E99410906E3E7FFF7C0FD04
:10579000346823002B40002F0DD1002B05D0434649
:1057A000002B02D02300AB433360FFF7BDFDDFE7E2
:1057B000FFF7A2FDD7E79D42F7D1F0E7F0B5D64657
:1057C0004F4646468146C0B50C00060000F0B2FDCB
:1057D0004B4619681D690C430C3621001C60AE4213
:1057E0002BD000239A468023DB04984613E06746BB
:1057F000002F0DD0802149040A4202D052461A439C
:10580000924680218904214301F030F94B46196802
:105810000C00AE420FD02800270002686D6813020A
:105820001B0A1F40BC4647463A42E0D06345E1D0E0
:105830000C00AE42EFD153469C434B461C6000F037
:1058400071FE2000E0BCBA46B146A846F0BDC04695
:10585000844610B513000A000248614601F0FEFBC1
:1058600010BDC0465D56001003000833012243609E
:10587000C360036100235242826003607047C046E8
:10588000002303617047C04630B505002B0008684F
:105890000C000833421C0DD019005B681A68824264
:1058A000FAD963609C602B68A16001334C6025616C
:1058B0002B6030BD29694B68F3E7C0460369416836
:1058C00082688A6051605968814205D00022026175
:1058D00018680138186070475A60F7E7F0B5DE467F
:1058E0004E4657464546E0B583B00600FFF710FD2B
:1058F0004523F45C64B2002C1EDD213B9C46B4447D
:10590000E04608E0AA6BEB6B01969A4241D3013C5A
:10591000E4B2002C10D0B56C002DF3D1736A002BCB
:105920000AD0404601F034F80028F0D001F030F9F8
:10593000013CE4B2002CEED14523FF22F254FFF7E4
:10594000F3FCFFF7E5FC44233500F45C103564B24A
:10595000002C04DC11E0013CE4B2002C0DD03369D2
:10596000002B0AD0280001F013F80028F3D0013CE6
:10597000E4B201F00DF9002CF1D14423FF22F254DE
:10598000FFF7D2FC03B0F0BCBB46B246A946A04626
:10599000F0BD4523EF5CAB6B2A6C013399467FB2B7
:1059A000002A12D12A689246002A2AD0AB637B1CB7
:1059B0001CD16B6A002BAAD02800243000F0E8FF2D
:1059C0000028A4D001F0E4F8B2E7686801A9FCF768
:1059D0009DFD6B682A6C9B18AA686B6093420ED37E
:1059E0002B686B604B46AB637B1CE2D000F0B0FCD5
:1059F000B84200D88BE745230137EF5487E74B4681
:105A0000D4E7A86801F0D0F85346AB604B46834614
:105A1000AB637B1C09D16B6A002B0ED15B46002B5C
:105A200000D174E701F0B4F882E700F091FCB842CD
:105A3000F4D945230137EF54F0E72800243000F073
:105A4000A7FF002800D071E7E8E7C046F0B5C646DA
:105A500000B5846C82B0A26BE36B002501909A4282
:105A600004D3280002B080BCB846F0BD4523E35CF7
:105A7000226C5EB2A36B1F00002A1CD0606801A9D3
:105A8000FCF744FD6368226C9B18A2686360934234
:105A900001D32368636000257B1CA363731C15D1AD
:105AA000636A002BDDD02000243000F071FF002855
:105AB000D7D00125D5E723689846002BEBD1A06805
:105AC00001F072F843460500A360E5E700F040FCF2
:105AD0008642C6D24522731CA354C2E7F8B505001E
